{
	"_format": "hh-sol-artifact-1",
	"contractName": "TrustLendr",
	"sourceName": "contracts/TrustLendr.sol",
	"abi": [
		{
			"inputs": [
				{
					"internalType": "address",
					"name": "_owner",
					"type": "address"
				}
			],
			"stateMutability": "nonpayable",
			"type": "constructor"
		},
		{
			"inputs": [
				{
					"internalType": "address",
					"name": "spender",
					"type": "address"
				},
				{
					"internalType": "uint256",
					"name": "allowance",
					"type": "uint256"
				},
				{
					"internalType": "uint256",
					"name": "needed",
					"type": "uint256"
				}
			],
			"name": "ERC20InsufficientAllowance",
			"type": "error"
		},
		{
			"inputs": [
				{
					"internalType": "address",
					"name": "sender",
					"type": "address"
				},
				{
					"internalType": "uint256",
					"name": "balance",
					"type": "uint256"
				},
				{
					"internalType": "uint256",
					"name": "needed",
					"type": "uint256"
				}
			],
			"name": "ERC20InsufficientBalance",
			"type": "error"
		},
		{
			"inputs": [
				{
					"internalType": "address",
					"name": "approver",
					"type": "address"
				}
			],
			"name": "ERC20InvalidApprover",
			"type": "error"
		},
		{
			"inputs": [
				{
					"internalType": "address",
					"name": "receiver",
					"type": "address"
				}
			],
			"name": "ERC20InvalidReceiver",
			"type": "error"
		},
		{
			"inputs": [
				{
					"internalType": "address",
					"name": "sender",
					"type": "address"
				}
			],
			"name": "ERC20InvalidSender",
			"type": "error"
		},
		{
			"inputs": [
				{
					"internalType": "address",
					"name": "spender",
					"type": "address"
				}
			],
			"name": "ERC20InvalidSpender",
			"type": "error"
		},
		{
			"anonymous": false,
			"inputs": [
				{
					"indexed": true,
					"internalType": "address",
					"name": "owner",
					"type": "address"
				},
				{
					"indexed": true,
					"internalType": "address",
					"name": "spender",
					"type": "address"
				},
				{
					"indexed": false,
					"internalType": "uint256",
					"name": "value",
					"type": "uint256"
				}
			],
			"name": "Approval",
			"type": "event"
		},
		{
			"anonymous": false,
			"inputs": [
				{
					"indexed": true,
					"internalType": "address",
					"name": "borrower",
					"type": "address"
				},
				{
					"indexed": false,
					"internalType": "uint256",
					"name": "newCreditScore",
					"type": "uint256"
				}
			],
			"name": "CreditScoreUpdated",
			"type": "event"
		},
		{
			"anonymous": false,
			"inputs": [
				{
					"indexed": true,
					"internalType": "address",
					"name": "borrower",
					"type": "address"
				},
				{
					"indexed": false,
					"internalType": "uint256",
					"name": "amount",
					"type": "uint256"
				},
				{
					"indexed": false,
					"internalType": "uint256",
					"name": "repaymentDate",
					"type": "uint256"
				},
				{
					"indexed": false,
					"internalType": "uint256",
					"name": "lateRepaymentFee",
					"type": "uint256"
				}
			],
			"name": "LoanRepaid",
			"type": "event"
		},
		{
			"anonymous": false,
			"inputs": [
				{
					"indexed": true,
					"internalType": "address",
					"name": "borrower",
					"type": "address"
				},
				{
					"indexed": false,
					"internalType": "uint256",
					"name": "amount",
					"type": "uint256"
				},
				{
					"indexed": false,
					"internalType": "uint256",
					"name": "repaymentDate",
					"type": "uint256"
				},
				{
					"indexed": false,
					"internalType": "uint256",
					"name": "lateRepaymentFee",
					"type": "uint256"
				}
			],
			"name": "LoanRequested",
			"type": "event"
		},
		{
			"anonymous": false,
			"inputs": [
				{
					"indexed": true,
					"internalType": "address",
					"name": "from",
					"type": "address"
				},
				{
					"indexed": true,
					"internalType": "address",
					"name": "to",
					"type": "address"
				},
				{
					"indexed": false,
					"internalType": "uint256",
					"name": "value",
					"type": "uint256"
				}
			],
			"name": "Transfer",
			"type": "event"
		},
		{
			"inputs": [
				{
					"internalType": "address",
					"name": "owner",
					"type": "address"
				},
				{
					"internalType": "address",
					"name": "spender",
					"type": "address"
				}
			],
			"name": "allowance",
			"outputs": [
				{
					"internalType": "uint256",
					"name": "",
					"type": "uint256"
				}
			],
			"stateMutability": "view",
			"type": "function"
		},
		{
			"inputs": [
				{
					"internalType": "address",
					"name": "spender",
					"type": "address"
				},
				{
					"internalType": "uint256",
					"name": "value",
					"type": "uint256"
				}
			],
			"name": "approve",
			"outputs": [
				{
					"internalType": "bool",
					"name": "",
					"type": "bool"
				}
			],
			"stateMutability": "nonpayable",
			"type": "function"
		},
		{
			"inputs": [
				{
					"internalType": "address",
					"name": "account",
					"type": "address"
				}
			],
			"name": "balanceOf",
			"outputs": [
				{
					"internalType": "uint256",
					"name": "",
					"type": "uint256"
				}
			],
			"stateMutability": "view",
			"type": "function"
		},
		{
			"inputs": [
				{
					"internalType": "address",
					"name": "",
					"type": "address"
				}
			],
			"name": "creditScores",
			"outputs": [
				{
					"internalType": "uint256",
					"name": "",
					"type": "uint256"
				}
			],
			"stateMutability": "view",
			"type": "function"
		},
		{
			"inputs": [],
			"name": "decimals",
			"outputs": [
				{
					"internalType": "uint8",
					"name": "",
					"type": "uint8"
				}
			],
			"stateMutability": "view",
			"type": "function"
		},
		{
			"inputs": [
				{
					"internalType": "address",
					"name": "account",
					"type": "address"
				}
			],
			"name": "getUserData",
			"outputs": [
				{
					"internalType": "uint256[4]",
					"name": "",
					"type": "uint256[4]"
				}
			],
			"stateMutability": "view",
			"type": "function"
		},
		{
			"inputs": [
				{
					"internalType": "address",
					"name": "",
					"type": "address"
				}
			],
			"name": "lateRepaymentFees",
			"outputs": [
				{
					"internalType": "uint256",
					"name": "",
					"type": "uint256"
				}
			],
			"stateMutability": "view",
			"type": "function"
		},
		{
			"inputs": [
				{
					"internalType": "address",
					"name": "",
					"type": "address"
				}
			],
			"name": "loanAmounts",
			"outputs": [
				{
					"internalType": "uint256",
					"name": "",
					"type": "uint256"
				}
			],
			"stateMutability": "view",
			"type": "function"
		},
		{
			"inputs": [
				{
					"internalType": "address",
					"name": "",
					"type": "address"
				}
			],
			"name": "loanRepaymentDates",
			"outputs": [
				{
					"internalType": "uint256",
					"name": "",
					"type": "uint256"
				}
			],
			"stateMutability": "view",
			"type": "function"
		},
		{
			"inputs": [],
			"name": "name",
			"outputs": [
				{
					"internalType": "string",
					"name": "",
					"type": "string"
				}
			],
			"stateMutability": "view",
			"type": "function"
		},
		{
			"inputs": [],
			"name": "repayLoan",
			"outputs": [],
			"stateMutability": "nonpayable",
			"type": "function"
		},
		{
			"inputs": [
				{
					"internalType": "uint256",
					"name": "_amount",
					"type": "uint256"
				},
				{
					"internalType": "uint256",
					"name": "_repaymentDate",
					"type": "uint256"
				},
				{
					"internalType": "uint256",
					"name": "_interestRate",
					"type": "uint256"
				},
				{
					"internalType": "uint256",
					"name": "_lateRepaymentFee",
					"type": "uint256"
				}
			],
			"name": "requestLoan",
			"outputs": [],
			"stateMutability": "nonpayable",
			"type": "function"
		},
		{
			"inputs": [],
			"name": "symbol",
			"outputs": [
				{
					"internalType": "string",
					"name": "",
					"type": "string"
				}
			],
			"stateMutability": "view",
			"type": "function"
		},
		{
			"inputs": [],
			"name": "token",
			"outputs": [
				{
					"internalType": "contract IERC20",
					"name": "",
					"type": "address"
				}
			],
			"stateMutability": "view",
			"type": "function"
		},
		{
			"inputs": [],
			"name": "totalSupply",
			"outputs": [
				{
					"internalType": "uint256",
					"name": "",
					"type": "uint256"
				}
			],
			"stateMutability": "view",
			"type": "function"
		},
		{
			"inputs": [
				{
					"internalType": "address",
					"name": "to",
					"type": "address"
				},
				{
					"internalType": "uint256",
					"name": "value",
					"type": "uint256"
				}
			],
			"name": "transfer",
			"outputs": [
				{
					"internalType": "bool",
					"name": "",
					"type": "bool"
				}
			],
			"stateMutability": "nonpayable",
			"type": "function"
		},
		{
			"inputs": [
				{
					"internalType": "address",
					"name": "from",
					"type": "address"
				},
				{
					"internalType": "address",
					"name": "to",
					"type": "address"
				},
				{
					"internalType": "uint256",
					"name": "value",
					"type": "uint256"
				}
			],
			"name": "transferFrom",
			"outputs": [
				{
					"internalType": "bool",
					"name": "",
					"type": "bool"
				}
			],
			"stateMutability": "nonpayable",
			"type": "function"
		}
	],
	"bytecode": "0x60806040523480156200001157600080fd5b506040516200124a3803806200124a833981016040819052620000349162000267565b6040518060400160405280601081526020016f2a393ab9ba2632b73239102a37b5b2b760811b8152506040518060400160405280600381526020016215131560ea1b81525081600390816200008a91906200033e565b5060046200009982826200033e565b5050600680546001600160a01b0319166001600160a01b038416908117909155620000eb9150620000c8601290565b620000d590600a6200051f565b620000e590633b9aca0062000530565b620000f2565b5062000560565b6001600160a01b038216620001225760405163ec442f0560e01b8152600060048201526024015b60405180910390fd5b620001306000838362000134565b5050565b6001600160a01b038316620001635780600260008282546200015791906200054a565b90915550620001d79050565b6001600160a01b03831660009081526020819052604090205481811015620001b85760405163391434e360e21b81526001600160a01b0385166004820152602481018290526044810183905260640162000119565b6001600160a01b03841660009081526020819052604090209082900390555b6001600160a01b038216620001f55760028054829003905562000214565b6001600160a01b03821660009081526020819052604090208054820190555b816001600160a01b0316836001600160a01b03167fddf252ad1be2c89b69c2b068fc378daa952ba7f163c4a11628f55a4df523b3ef836040516200025a91815260200190565b60405180910390a3505050565b6000602082840312156200027a57600080fd5b81516001600160a01b03811681146200029257600080fd5b9392505050565b634e487b7160e01b600052604160045260246000fd5b600181811c90821680620002c457607f821691505b602082108103620002e557634e487b7160e01b600052602260045260246000fd5b50919050565b601f8211156200033957600081815260208120601f850160051c81016020861015620003145750805b601f850160051c820191505b81811015620003355782815560010162000320565b5050505b505050565b81516001600160401b038111156200035a576200035a62000299565b62000372816200036b8454620002af565b84620002eb565b602080601f831160018114620003aa5760008415620003915750858301515b600019600386901b1c1916600185901b17855562000335565b600085815260208120601f198616915b82811015620003db57888601518255948401946001909101908401620003ba565b5085821015620003fa5787850151600019600388901b60f8161c191681555b5050505050600190811b01905550565b634e487b7160e01b600052601160045260246000fd5b600181815b80851115620004615781600019048211156200044557620004456200040a565b808516156200045357918102915b93841c939080029062000425565b509250929050565b6000826200047a5750600162000519565b81620004895750600062000519565b8160018114620004a25760028114620004ad57620004cd565b600191505062000519565b60ff841115620004c157620004c16200040a565b50506001821b62000519565b5060208310610133831016604e8410600b8410161715620004f2575081810a62000519565b620004fe838362000420565b80600019048211156200051557620005156200040a565b0290505b92915050565b60006200029260ff84168362000469565b80820281158282048414176200051957620005196200040a565b808201808211156200051957620005196200040a565b610cda80620005706000396000f3fe608060405234801561001057600080fd5b506004361061010b5760003560e01c8063753c7ff9116100a2578063a9059cbb11610071578063a9059cbb1461024f578063dd62ed3e14610262578063f966ade71461029b578063fc0c546a146102a3578063ffc9896b146102ce57600080fd5b8063753c7ff9146101f257806380bb7273146102075780638f78e2f01461022757806395d89b411461024757600080fd5b806323b872dd116100de57806323b872dd14610187578063313ce5671461019a5780636fd5eb73146101a957806370a08231146101c957600080fd5b806306fdde0314610110578063095ea7b31461012e57806311b032531461015157806318160ddd1461017f575b600080fd5b6101186102ee565b6040516101259190610aa6565b60405180910390f35b61014161013c366004610b10565b610380565b6040519015158152602001610125565b61017161015f366004610b3a565b600a6020526000908152604090205481565b604051908152602001610125565b600254610171565b610141610195366004610b5c565b61039a565b60405160128152602001610125565b6101716101b7366004610b3a565b60096020526000908152604090205481565b6101716101d7366004610b3a565b6001600160a01b031660009081526020819052604090205490565b610205610200366004610b98565b6103be565b005b610171610215366004610b3a565b60076020526000908152604090205481565b610171610235366004610b3a565b60086020526000908152604090205481565b6101186104da565b61014161025d366004610b10565b6104e9565b610171610270366004610bca565b6001600160a01b03918216600090815260016020908152604080832093909416825291909152205490565b6102056104f7565b6005546102b6906001600160a01b031681565b6040516001600160a01b039091168152602001610125565b6102e16102dc366004610b3a565b6105d2565b6040516101259190610bfd565b6060600380546102fd90610c2e565b80601f016020809104026020016040519081016040528092919081815260200182805461032990610c2e565b80156103765780601f1061034b57610100808354040283529160200191610376565b820191906000526020600020905b81548152906001019060200180831161035957829003601f168201915b5050505050905090565b60003361038e818585610636565b60019150505b92915050565b6000336103a8858285610648565b6103b38585856106c6565b506001949350505050565b600084116104095760405162461bcd60e51b8152602060048201526013602482015272125b9d985b1a59081b1bd85b88185b5bdd5b9d606a1b60448201526064015b60405180910390fd5b60006104158386610c7e565b61041f9086610c7e565b33600090815260086020908152604080832084905560098252808320889055600a8252808320869055600790915281205491925081900361047357336000908152600760205260409020610352905561048f565b61047e600a82610c91565b336000908152600760205260409020555b604080518381526020810187905290810184905233907f470e775e4fa2bd975947314dc912d0dd85338d809a6b967e36382e32a3b6f2bb9060600160405180910390a2505050505050565b6060600480546102fd90610c2e565b60003361038e8185856106c6565b33600090815260096020526040812054900361054b5760405162461bcd60e51b815260206004820152601360248201527227379037baba39ba30b73234b733903637b0b760691b6044820152606401610400565b336000818152600860205260409020549061056590610725565b33600081815260086020908152604080832083905560098252808320839055600a8252808320839055805185815242928101929092528101919091527f2cebe3c4a7e8e81ca2035a6cb3ee450bb6401d9b6636652e183583f047049572906060015b60405180910390a250565b6105da610a88565b6001600160a01b03821660009081526007602090815260408083205460088352818420546009845282852054600a909452919093205490919061061b610a88565b93845260208401929092526040830152606082015292915050565b6106438383836001610889565b505050565b6001600160a01b0383811660009081526001602090815260408083209386168352929052205460001981146106c057818110156106b157604051637dc7a0d960e11b81526001600160a01b03841660048201526024810182905260448101839052606401610400565b6106c084848484036000610889565b50505050565b6001600160a01b0383166106f057604051634b637e8f60e11b815260006004820152602401610400565b6001600160a01b03821661071a5760405163ec442f0560e01b815260006004820152602401610400565b61064383838361095e565b6001600160a01b03811660009081526009602052604090205415610886576001600160a01b0381166000908152600960205260409020544211156107cd576001600160a01b03811660009081526007602052604090205460321061078a5760006107af565b6001600160a01b0381166000908152600760205260409020546107af90603290610c91565b6001600160a01b0382166000908152600760205260409020556107fc565b6001600160a01b03811660009081526007602052604081208054601992906107f6908490610c7e565b90915550505b6001600160a01b038116600090815260076020526040902054610352101561083c576001600160a01b038116600090815260076020526040902061035290555b6001600160a01b0381166000818152600760209081526040918290205491519182527f79c012a0cfae660e09134956bc432c8497ec80e86a3a108d130e8b3fca52b3ad91016105c7565b50565b6001600160a01b0384166108b35760405163e602df0560e01b815260006004820152602401610400565b6001600160a01b0383166108dd57604051634a1406b160e11b815260006004820152602401610400565b6001600160a01b03808516600090815260016020908152604080832093871683529290522082905580156106c057826001600160a01b0316846001600160a01b03167f8c5be1e5ebec7d5bd14f71427d1e84f3dd0314c0f7b2291e5b200ac8c7c3b9258460405161095091815260200190565b60405180910390a350505050565b6001600160a01b03831661098957806002600082825461097e9190610c7e565b909155506109fb9050565b6001600160a01b038316600090815260208190526040902054818110156109dc5760405163391434e360e21b81526001600160a01b03851660048201526024810182905260448101839052606401610400565b6001600160a01b03841660009081526020819052604090209082900390555b6001600160a01b038216610a1757600280548290039055610a36565b6001600160a01b03821660009081526020819052604090208054820190555b816001600160a01b0316836001600160a01b03167fddf252ad1be2c89b69c2b068fc378daa952ba7f163c4a11628f55a4df523b3ef83604051610a7b91815260200190565b60405180910390a3505050565b60405180608001604052806004906020820280368337509192915050565b600060208083528351808285015260005b81811015610ad357858101830151858201604001528201610ab7565b506000604082860101526040601f19601f8301168501019250505092915050565b80356001600160a01b0381168114610b0b57600080fd5b919050565b60008060408385031215610b2357600080fd5b610b2c83610af4565b946020939093013593505050565b600060208284031215610b4c57600080fd5b610b5582610af4565b9392505050565b600080600060608486031215610b7157600080fd5b610b7a84610af4565b9250610b8860208501610af4565b9150604084013590509250925092565b60008060008060808587031215610bae57600080fd5b5050823594602084013594506040840135936060013592509050565b60008060408385031215610bdd57600080fd5b610be683610af4565b9150610bf460208401610af4565b90509250929050565b60808101818360005b6004811015610c25578151835260209283019290910190600101610c06565b50505092915050565b600181811c90821680610c4257607f821691505b602082108103610c6257634e487b7160e01b600052602260045260246000fd5b50919050565b634e487b7160e01b600052601160045260246000fd5b8082018082111561039457610394610c68565b8181038181111561039457610394610c6856fea264697066735822122017d260b5ea4e1723aed8841fce16db329f11e78b47ce5c7627892b370d63e25f64736f6c63430008140033",
	"linkReferences": {},
	"deployedLinkReferences": {}
}